:040000005FEF0BF0B3
:10100000003738392F3435362A3132332D63303DAD
:101010002B00010E2E6E2850D8B411EF08F013EFFC
:1010200008F086EF08F02850D96EDA6ADF50070B17
:10103000296E050E29601FEF08F021EF08F086EFFA
:1010400008F02850D96EDA6ADF30E832E832070B50
:10105000296E080E29602FEF08F031EF08F086EFB7
:1010600008F08AEF08F02850D96EDA6ADF30E832EB
:10107000E832070B296E010E2A6E292A42EF08F08A
:10108000D8902A36292E40EF08F02A50FF0A2B6EFE
:101090002850D96EDA6ADF50070B020DF350150F96
:1010A000D96EDA6ADECF2CF0DDCF2DF02CC0D9FF5F
:1010B0002DC0DAFF2B50DF16AAEF08F02850D96EAA
:1010C000DA6ADF30E832E832070B296E010E2A6E49
:1010D000292A6DEF08F0D8902A36292E6BEF08F0F8
:1010E0002850D96EDA6ADF50070B020DF350150F46
:1010F000D96EDA6ADECF2BF0DDCF2CF02BC0D9FF12
:101100002CC0DAFF2A50DF12AAEF08F0000E2E6E74
:10111000AAEF08F02850D96EDA6ADFBC92EF08F027
:1011200095EF08F0010E96EF08F0000E296E2A6A7E
:101130002A50000AD8B49FEF08F086EF08F0295033
:10114000000AD8B433EF08F0010AD8B45EEF08F013
:1011500086EF08F02E501200010E2F6E2850D8B4E2
:10116000B4EF08F0B6EF08F033EF09F02850D96E6D
:10117000DA6ADF50070B2A6E050E2A60C2EF08F00C
:10118000C4EF08F033EF09F02850D96EDA6ADF3087
:10119000E832E832070B2A6E080E2A60D2EF08F018
:1011A000D4EF08F033EF09F02850D96EDA6ADFBCCB
:1011B000DCEF08F0DEEF08F033EF09F037EF09F06D
:1011C0002850D96EDA6ADF30E832E832070B2A6E2F
:1011D000010E2B6E2A2AEFEF08F0D8902B362A2E1C
:1011E000EDEF08F02B50FF0A2C6E2850D96EDA6A0A
:1011F000DF50070B020DF3500B0FD96EDA6ADECF0A
:101200002DF0DDCF2EF02DC0D9FF2EC0DAFF2C50EF
:10121000DF164CEF09F02850D96EDA6ADF30E83279
:10122000E832070B2A6E010E2B6E2A2A1AEF09F0FC
:10123000D8902B362A2E18EF09F02850D96EDA6A8A
:10124000DF50070B020DF3500B0FD96EDA6ADECFB9
:101250002CF0DDCF2DF02CC0D9FF2DC0DAFF2B50A4
:10126000DF124CEF09F0000E2F6E4CEF09F0295001
:101270002A6E2B6A2B50000AD8B441EF09F033EFE5
:1012800009F02A50000AD8B4E0EF08F0010AD8B4F7
:101290000BEF09F033EF09F02F501200000E366EFD
:1012A000000E376E000E356E000E346E3050D8B41E
:1012B0005CEF09F05EEF09F0B8EF09F03150D8B4F7
:1012C00064EF09F066EF09F0B8EF09F0000E366E32
:1012D000000E356E30503524286E000E296EACECB1
:1012E00008F0352A030E356478EF09F07AEF09F03B
:1012F0006AEF09F030503624286E010E296EACECEE
:1013000008F0000E376E30503724040F286E340E6C
:10131000296EBCEC09F0336E3404D8A492EF09F0C6
:1013200094EF09F0A4EF09F03650040DF350010FCB
:101330003724326E32C0F6FF100EF76E3150D96E80
:10134000DA6A0800F5CFDFFF372A030E3764ABEF08
:1013500009F0ADEF09F083EF09F0362A030E366489
:10136000B4EF09F0B6EF09F068EF09F0BAEF09F051
:10137000000E336E33501200010E2E6E2850D8B47A
:10138000C4EF09F0C6EF09F018EF0AF02950D8B4FD
:10139000CCEF09F0CEEF09F018EF0AF02850D96E23
:1013A000DA6ADF50070B2A6E050E2A60DAEF09F0C1
:1013B000DCEF09F018EF0AF02850D96EDA6ADF3056
:1013C000E832E832070B2A6E080E2A60EAEF09F0CD
:1013D000ECEF09F018EF0AF02950D96EDA6A2850BC
:1013E000E16EE26AE730E832E832070B2A6E2850F5
:1013F000E16EE26AE750070B020DF350010FE16E58
:10140000E26AE6CF2BF0E5CF2CF02BC0E1FF2CC039
:10141000E2FFE7502D6E2A2A10EF0AF0D8902D3205
:101420002A2E0EEF0AF02D50010BDF6E1AEF0AF094
:10143000000E2E6E2E5012003050D8B422EF0AF05B
:1014400024EF0AF055EF0AF03050D96EDA6ADF5017
:10145000070B316E050E316030EF0AF032EF0AF003
:1014600055EF0AF03050D96EDA6ADF30E832E832F0
:10147000070B316E080E316040EF0AF042EF0AF0C0
:1014800055EF0AF030C028F009EC08F0326E30C099
:1014900028F03050D96EDA6A000EDFBE010E296ED8
:1014A000ACEC08F0326E57EF0AF0000E326E32509C
:1014B00012003350D8B45FEF0AF061EF0AF08EEFFC
:1014C0000AF03EC036F03350D96EDA6ADF50070BAF
:1014D000346E36503418F80B3418366E3350D96EDB
:1014E000DA6ADF30E832E832070B346E34463446CD
:1014F000344636503418C70B3418366E369C335089
:10150000D96EDA6ADFAC02D0368E01D0369E360E46
:10151000306E1CEC0AF0356E90EF0AF0000E356E5E
:10152000355012003050D8B498EF0AF09AEF0AF014
:10153000C8EF0AF03DC032F03050D96EDA6ADF50A1
:10154000070B316E32503118F80B3118326E3050B3
:10155000D96EDA6ADF30E832E832070B316E314695
:101560003146314632503118C70B3118326E329C39
:101570003050D96EDA6ADFAC02D0328E01D0329EA2
:10158000320E286E010E296EACEC08F0C8EF0AF09E
:1015900012003050D8B4CFEF0AF0D1EF0AF0FFEFCD
:1015A0000AF03CC032F03050D96EDA6ADF50070BD7
:1015B000316E32503118F80B3118326E3050D96E0E
:1015C000DA6ADF30E832E832070B316E31463146F5
:1015D000314632503118C70B3118326E329C3050C0
:1015E000D96EDA6ADFAC02D0328E01D0329E320E72
:1015F000286E000E296EACEC08F0FFEF0AF0120026
:10160000000E356E000E366E3350D8B40AEF0BF074
:101610000CEF0BF030EF0BF0000E356E335035242D
:10162000306E1CEC0AF0352A030E35641AEF0BF00D
:101630001CEF0BF00EEF0BF0000E366E335036241D
:10164000040F286E09EC08F0346E362A030E366457
:101650002CEF0BF02EEF0BF01EEF0BF032EF0BF038
:10166000000E346E3450120099EC0BF01F0E306EE9
:101670003F0E316E4EEC09F0406E350E3F18D8A487
:1016800044EF0BF046EF0BF04CEF0BF0270E306EF3
:1016900092EC0AF036EF0BF03D0E3F18D8A453EF52
:1016A0000BF055EF0BF05BEF0BF0270E306EC9EC33
:1016B0000AF036EF0BF036EF0BF000EF00F0F40E0F
:1016C000F66E160EF76E000EF86E00EE01F010EEDC
:1016D00027F00900F5CFEEFFE550E150FAE100EE0A
:1016E00038F0080EEE6AE806FDE1000EF86E000123
:1016F00034EF0BF0800F810F820F830F840F890F5F
:101700008A0F8B0F8C0F8D0F920F930F940F950FE5
:0B171000960F020A121A626A727A0336
:10171C001F0E336E00EC0BF0270E336E59EC0AF0F3
:0C172C00376E375012008EEC0BF01200EC
:020000040030CA
:0E000000FF02091EFF8181FF0FC00FE00F40BD
:00000001FF
