:0400000058EF0AF0BB
:101000000000010E256E1F50D8B409EF08F00BEF59
:1010100008F07EEF08F01F50D96EDA6ADF50070B38
:10102000206E050E206017EF08F019EF08F07EEF34
:1010300008F01F50D96EDA6ADF30E832E832070B69
:10104000206E080E206027EF08F029EF08F07EEFF1
:1010500008F082EF08F01F50D96EDA6ADF30E8320C
:10106000E832070B206E010E216E202A3AEF08F0BD
:10107000D8902136202E38EF08F02150FF0A226E3A
:101080001F50D96EDA6ADF50070B020DF350150FAF
:10109000D96EDA6ADECF23F0DDCF24F023C0D9FF8A
:1010A00024C0DAFF2250DF16A2EF08F01F50D96EDD
:1010B000DA6ADF30E832E832070B206E010E216E6B
:1010C000202A65EF08F0D8902136202E63EF08F033
:1010D0001F50D96EDA6ADF50070B020DF350150F5F
:1010E000D96EDA6ADECF22F0DDCF23F022C0D9FF3D
:1010F00023C0DAFF2150DF12A2EF08F0000E256EA8
:10110000A2EF08F01F50D96EDA6ADFBC8AEF08F050
:101110008DEF08F0010E8EEF08F0000E206E216AB0
:101120002150000AD8B497EF08F07EEF08F0205065
:10113000000AD8B42BEF08F0010AD8B456EF08F033
:101140007EEF08F025501200010E266E1F50D8B415
:10115000ACEF08F0AEEF08F02BEF09F01F50D96E9E
:10116000DA6ADF50070B216E050E2160BAEF08F036
:10117000BCEF08F02BEF09F01F50D96EDA6ADF30B0
:10118000E832E832070B216E080E2160CAEF08F042
:10119000CCEF08F02BEF09F01F50D96EDA6ADFBCF4
:1011A000D4EF08F0D6EF08F02BEF09F02FEF09F09D
:1011B0001F50D96EDA6ADF30E832E832070B216E51
:1011C000010E226E212AE7EF08F0D8902236212E58
:1011D000E5EF08F02250FF0A236E1F50D96EDA6A3D
:1011E000DF50070B020DF3500B0FD96EDA6ADECF1A
:1011F00024F0DDCF25F024C0D9FF25C0DAFF23502D
:10120000DF1644EF09F01F50D96EDA6ADF30E8329A
:10121000E832070B216E010E226E212A12EF09F02F
:10122000D8902236212E10EF09F01F50D96EDA6ABD
:10123000DF50070B020DF3500B0FD96EDA6ADECFC9
:1012400023F0DDCF24F023C0D9FF24C0DAFF2250E1
:10125000DF1244EF09F0000E266E44EF09F0205033
:10126000216E226A2250000AD8B439EF09F02BEF20
:1012700009F02150000AD8B4D8EF08F0010AD8B418
:1012800003EF09F02BEF09F0265012002750D8B4D5
:101290004CEF09F04EEF09F07FEF09F02750D96EBF
:1012A000DA6ADF50070B286E050E28605AEF09F046
:1012B0005CEF09F07FEF09F02750D96EDA6ADF3072
:1012C000E832E832070B286E080E28606AEF09F052
:1012D0006CEF09F07FEF09F027C01FF001EC08F078
:1012E000296E27C01FF02750D96EDA6A000EDFBEC4
:1012F000010E206EA4EC08F0296E81EF09F0000EBB
:10130000296E295012002750D8B489EF09F08BEFCD
:1013100009F0BAEF09F031C02AF02750D96EDA6A25
:10132000DF50070B286E2A502818F80B28182A6E51
:101330002750D96EDA6ADF30E832E832070B286EC0
:101340002846284628462A502818C70B28182A6EEF
:101350002A9C2750D96EDA6ADFAC02D02A8E01D0DF
:101360002A9E2A0E1F6E010E206EA4EC08F0296E34
:10137000BCEF09F0000E296E295012002750D8B496
:10138000C4EF09F0C6EF09F0F5EF09F030C02AF01C
:101390002750D96EDA6ADF50070B286E2A502818BA
:1013A000F80B28182A6E2750D96EDA6ADF30E83237
:1013B000E832070B286E2846284628462A50281867
:1013C000C70B28182A6E2A9C2750D96EDA6ADFAC20
:1013D00002D02A8E01D02A9E2A0E1F6E000E206E89
:1013E000A4EC08F0296EF7EF09F0000E296E2950E1
:1013F00012002A50D8B4FFEF09F001EF0AF02EEFE7
:101400000AF032C02DF02A50D96EDA6ADF50070B8D
:101410002B6E2D502B18F80B2B182D6E2A50D96ED1
:10142000DA6ADF30E832E832070B2B6E2B462B46A8
:101430002B462D502B18C70B2B182D6E2D9C2A5088
:10144000D96EDA6ADFAC02D02D8E01D02D9E2D0E22
:10145000276E46EC09F02C6E30EF0AF0000E2C6E71
:101460002C50120082EC0AF0370E276E83EC09F044
:10147000386E0B0E2F6E260E2E6E5E0EE82EFED7E9
:101480002E2EFCD72F2EFAD7370E276EBEEC09F082
:10149000386E0B0E2F6E260E2E6E5E0EE82EFED7C9
:1014A0002E2EFCD72F2EFAD734EF0AF000EF00F0E3
:1014B000E60EF66E140EF76E000EF86E00EE01F0FA
:1014C00010EE1EF00900F5CFEEFFE550E150FAE115
:1014D00000EE30F0080EEE6AE806FDE1000EF86E50
:1014E000000132EF0AF0800F810F820F830F840F0B
:1014F000890F8A0F8B0F8C0F8D0F920F930F940F04
:0E150000950F960F370E2A6EF9EC09F01200C7
:020000040030CA
:0E000000FF02091EFF8181FF0FC00FE00F40BD
:00000001FF
