:04000000E8EF09F02C
:101000000000010E296E2350D8B409EF08F00BEF51
:1010100008F07EEF08F02350D96EDA6ADF50070B34
:10102000246E050E246017EF08F019EF08F07EEF2C
:1010300008F02350D96EDA6ADF30E832E832070B65
:10104000246E080E246027EF08F029EF08F07EEFE9
:1010500008F082EF08F02350D96EDA6ADF30E83208
:10106000E832070B246E010E256E242A3AEF08F0B1
:10107000D8902536242E38EF08F02550FF0A266E2A
:101080002350D96EDA6ADF50070B020DF350150FAB
:10109000D96EDA6ADECF27F0DDCF28F027C0D9FF7E
:1010A00028C0DAFF2650DF16A2EF08F02350D96ED1
:1010B000DA6ADF30E832E832070B246E010E256E63
:1010C000242A65EF08F0D8902536242E63EF08F027
:1010D0002350D96EDA6ADF50070B020DF350150F5B
:1010E000D96EDA6ADECF26F0DDCF27F026C0D9FF31
:1010F00027C0DAFF2550DF12A2EF08F0000E296E9C
:10110000A2EF08F02350D96EDA6ADFBC8AEF08F04C
:101110008DEF08F0010E8EEF08F0000E246E256AA8
:101120002550000AD8B497EF08F07EEF08F024505D
:10113000000AD8B42BEF08F0010AD8B456EF08F033
:101140007EEF08F029501200010E2A6E2350D8B409
:10115000ACEF08F0AEEF08F02BEF09F02350D96E9A
:10116000DA6ADF50070B256E050E2560BAEF08F02E
:10117000BCEF08F02BEF09F02350D96EDA6ADF30AC
:10118000E832E832070B256E080E2560CAEF08F03A
:10119000CCEF08F02BEF09F02350D96EDA6ADFBCF0
:1011A000D4EF08F0D6EF08F02BEF09F02FEF09F09D
:1011B0002350D96EDA6ADF30E832E832070B256E49
:1011C000010E266E252AE7EF08F0D8902636252E48
:1011D000E5EF08F02650FF0A276E2350D96EDA6A31
:1011E000DF50070B020DF3500B0FD96EDA6ADECF1A
:1011F00028F0DDCF29F028C0D9FF29C0DAFF275019
:10120000DF1644EF09F02350D96EDA6ADF30E83296
:10121000E832070B256E010E266E252A12EF09F023
:10122000D8902636252E10EF09F02350D96EDA6AB1
:10123000DF50070B020DF3500B0FD96EDA6ADECFC9
:1012400027F0DDCF28F027C0D9FF28C0DAFF2650CD
:10125000DF1244EF09F0000E2A6E44EF09F024502B
:10126000256E266A2650000AD8B439EF09F02BEF14
:1012700009F02550000AD8B4D8EF08F0010AD8B414
:1012800003EF09F02BEF09F02A50120077EC0AF077
:10129000210E2B6E1CEC0AF01F0E2B6E1CEC0AF0BC
:1012A0000B0E316E260E306E5E0EE82EFED7302EFF
:1012B000FCD7312EFAD7210E2B6E35EC0AF01F0E1B
:1012C0002B6E35EC0AF00B0E316E260E306E5E0E74
:1012D000E82EFED7302EFCD7312EFAD7210E2B6EFA
:1012E0001CEC0AF01F0E2B6E35EC0AF00B0E316E63
:1012F000260E306E5E0EE82EFED7302EFCD7312E35
:10130000FAD7210E2B6E35EC0AF01F0E2B6E1CEC5B
:101310000AF00B0E316E260E306E5E0EE82EFED7F2
:10132000302EFCD7312EFAD7210E2B6E03EC0AF0AB
:101330001F0E2B6E03EC0AF00B0E316E260E306E74
:101340005E0EE82EFED7302EFCD7312EFAD748EFAE
:1013500009F000EF00F02B50D8B4B1EF09F0B3EF73
:1013600009F0E4EF09F02B50D96EDA6ADF50070B71
:101370002C6E050E2C60BFEF09F0C1EF09F0E4EF11
:1013800009F02B50D96EDA6ADF30E832E832070B09
:101390002C6E080E2C60CFEF09F0D1EF09F0E4EFCE
:1013A00009F02BC023F001EC08F02D6E2BC023F0C8
:1013B0002B50D96EDA6A000EDFBE010E246EA4EC4B
:1013C00008F02D6EE6EF09F0000E2D6E2D50120084
:1013D000CC0EF66E140EF76E000EF86E00EE01F0F5
:1013E00010EE22F00900F5CFEEFFE550E150FAE1F2
:1013F00000EE32F0080EEE6AE806FDE1000EF86E2F
:10140000000146EF09F02B50D8B409EF0AF00BEFBA
:101410000AF01BEF0AF02BC023F0000E246EA4ECA0
:1014200008F02C6E2B28236E000E246EA4EC08F01E
:101430002C6E1BEF0AF012002B50D8B422EF0AF0EA
:1014400024EF0AF034EF0AF02BC023F0010E246ED3
:10145000A4EC08F02C6E2B28236E000E246EA4EC56
:1014600008F02C6E34EF0AF012002B50D8B43BEF8A
:101470000AF03DEF0AF04DEF0AF02BC023F0000E0A
:10148000246EA4EC08F02C6E2B28236E010E246E23
:10149000A4EC08F02C6E4DEF0AF012002E50D8B4D8
:1014A00054EF0AF056EF0AF062EF0AF02EC02BF06C
:1014B000ABEC09F02F6E2E282B6EABEC09F02F6EE3
:1014C00064EF0AF0000E2F6E2F501200800F810F74
:1014D000820F830F840F890F8A0F8B0F8C0F8D0F54
:1014E000920F930F940F950F960F11190109210E6A
:1014F0002E6E4EEC0AF01F0E2E6E4EEC0AF012000D
:020000040030CA
:0E000000FF02091EFF8181FF0FC00FE00F40BD
:00000001FF
