:0400000033EF00F0EA
:060008006F820BED08F011
:100018006F80E0CF6EF0F0A614EF00F016EF00F05E
:100028001FEF00F0F0A01BEF00F01DEF00F01FEF36
:1000380000F0F9EC0DF0F0A824EF00F026EF00F046
:100048002FEF00F0F0A22BEF00F02DEF00F02FEFD4
:1000580000F0F7EC0DF06EC0E0FF6F9010002FEF8E
:020068000DF099
:10100000003738392F3435362A3132332D63303DAD
:051010002B2569000022
:101016000600FACF68F0FBCF69F0D9CF6AF0DACFD5
:101026006BF0F3CF6CF0F4CF6DF0F2A81DEF08F083
:101036001FEF08F028EF08F0F2A224EF08F026EFE1
:1010460008F028EF08F0FBEC0DF0F2A62DEF08F003
:101056002FEF08F04AEF08F0F2A034EF08F036EF71
:1010660008F04AEF08F081B83BEF08F03DEF08F0D2
:101076004AEF08F05504D8A443EF08F045EF08F00E
:101086004AEF08F0000E556E000E4CEC0CF0F2A67E
:101096004FEF08F051EF08F06CEF08F0F2A056EFB2
:1010A60008F058EF08F06CEF08F081A85DEF08F043
:1010B6005FEF08F06CEF08F05550D8A465EF08F024
:1010C60067EF08F06CEF08F0010E556E010E4CEC60
:1010D6000CF0F2A671EF08F073EF08F08EEF08F04F
:1010E600F2A078EF08F07AEF08F08EEF08F081BAF8
:1010F6007FEF08F081EF08F08EEF08F05404D8A4D3
:1011060087EF08F089EF08F08EEF08F0000E546EB6
:10111600000E0DEC0CF0F2A693EF08F095EF08F038
:10112600B0EF08F0F2A09AEF08F09CEF08F0B0EFED
:1011360008F081AAA1EF08F0A3EF08F0B0EF08F0DD
:101146005450D8A4A9EF08F0ABEF08F0B0EF08F0C0
:10115600010E546E010E0DEC0CF0F2A6B5EF08F080
:10116600B7EF08F0D2EF08F0F2A0BCEF08F0BEEF40
:1011760008F0D2EF08F081BCC3EF08F0C5EF08F025
:10118600D2EF08F05304D8A4CBEF08F0CDEF08F067
:10119600D2EF08F0000E536E000ECEEC0BF0F2A666
:1011A600D7EF08F0D9EF08F0F4EF08F0F2A0DEEF81
:1011B60008F0E0EF08F0F4EF08F081ACE5EF08F096
:1011C600E7EF08F0F4EF08F05350D8A4EDEF08F07D
:1011D600EFEF08F0F4EF08F0010E536E010ECEECBF
:1011E6000BF0F2A6F9EF08F0FBEF08F016EF09F0A6
:1011F600F2A000EF09F002EF09F016EF09F081BE48
:1012060007EF09F009EF09F016EF09F05204D8A428
:101216000FEF09F011EF09F016EF09F0000E526E0C
:10122600000E8FEC0BF0F2A61BEF09F01DEF09F094
:1012360038EF09F0F2A022EF09F024EF09F038EFB9
:1012460009F081AE29EF09F02BEF09F038EF09F02C
:101256005250D8A431EF09F033EF09F038EF09F016
:10126600010E526E010E8FEC0BF06DC0F4FF6CC0D8
:10127600F3FF6BC0DAFF6AC0D9FF69C0FBFF68C025
:10128600FAFF6F921100010E0001A96FA251D8B4A6
:101296004FEF09F051EF09F0D0EF09F0A251D96EE6
:1012A600DA6ADF50070BA46F050EA4615DEF09F043
:1012B6005FEF09F0D0EF09F0A251D96EDA6ADF309C
:1012C600E832E832070BA46F080EA4616DEF09F04F
:1012D6006FEF09F0D0EF09F0A251D96EDA6ADFBCE0
:1012E60077EF09F079EF09F0D0EF09F0D4EF09F0C4
:1012F600A251D96EDA6ADF30E832E832070BA46F02
:10130600010EA56FA42B8AEF09F0D890A537A42F5C
:1013160088EF09F00001A551FF0AA66FA251D96E08
:10132600DA6ADF50070B020DF350010FD96EDA6A45
:10133600DECFA7F0DDCFA8F0A7C0D9FFA8C0DAFF9F
:10134600A651DF16E9EF09F0A251D96EDA6ADF304D
:10135600E832E832070BA46F010EA56FA42BB6EF97
:1013660009F0D890A537A42FB4EF09F00001A251D7
:10137600D96EDA6ADF50070B020DF350010FD96EF2
:10138600DA6ADECFA6F0DDCFA7F0A6C0D9FFA7C0E8
:10139600DAFFA551DF12E9EF09F0000EA96FE9EFB8
:1013A60009F0A351A46FA56BA551000AD8B4DEEFCE
:1013B60009F0D0EF09F0A451000AD8B47BEF09F088
:1013C600010AD8B4A7EF09F0D0EF09F0A95112002D
:1013D600010E0001A86FA251D8B4F4EF09F0F6EFA0
:1013E60009F06BEF0AF0A251D96EDA6ADF50070BEB
:1013F600A36F050EA36102EF0AF004EF0AF06BEF8C
:101406000AF0A251D96EDA6ADF30E832E832070B09
:10141600A36F080EA36112EF0AF014EF0AF06BEF48
:101426000AF06FEF0AF0A251D96EDA6ADF30E832BD
:10143600E832070BA36F010EA46FA32B25EF0AF06A
:10144600D890A437A32F23EF0AF00001A451FF0A76
:10145600A56FA251D96EDA6ADF50070B020DF35061
:101466000B0FD96EDA6ADECFA6F0DDCFA7F0A6C0E5
:10147600D9FFA7C0DAFFA551DF1685EF0AF0A25102
:10148600D96EDA6ADF30E832E832070BA36F010E55
:10149600A46FA32B51EF0AF0D890A437A32F4FEFD8
:1014A6000AF00001A251D96EDA6ADF50070B020D6D
:1014B600F3500B0FD96EDA6ADECFA5F0DDCFA6F0BA
:1014C600A5C0D9FFA6C0DAFFA451DF1285EF0AF046
:1014D600000EA86F85EF0AF0A251D96EDA6ADFBC5A
:1014E60077EF0AF07AEF0AF0010E7BEF0AF0000EB2
:1014F600000AD8B416EF0AF0010AD8B442EF0AF08F
:101506006BEF0AF0A8511200010E0001A36FA25161
:10151600D8B490EF0AF092EF0AF0DAEF0AF0DEEFB5
:101526000AF0A251D96EDA6A020ED926DECF4AF047
:10153600DDCF4BF0A251D96EDA6ADECF48F0DDCFAF
:1015460049F0A251D96EDA6A020ED926DECF46F0EC
:10155600DDCF47F0A251D96EDA6ADECF44F0DDCF97
:1015660045F0F9EF0AF0A251D96EDA6A020ED926D1
:10157600DECF42F0DDCF43F0A251D96EDA6ADECF7C
:1015860040F0DDCF41F0F9EF0AF0A251D96EDA6AE8
:10159600020ED926DECF3EF0DDCF3FF0A251D96E46
:1015A600DA6ADECF3CF0DDCF3DF0F9EF0AF0000E4F
:1015B600A36FF9EF0AF0A251D96EDA6A040ED926A2
:1015C600DF30E832E832070B040AD8B494EF0AF0A9
:1015D600010AD8B4A4EF0AF0030AD8B4B6EF0AF0A9
:1015E600010AD8B4C8EF0AF0DAEF0AF0A3511200E4
:1015F600010E636E5E50D8B403EF0BF005EF0BF0EF
:101606004BEF0BF05E50D96EDA6ADF50070B5F6E58
:10161600050E5F6011EF0BF013EF0BF04BEF0BF0C5
:101626005E50D96EDA6ADF30E832E832070B5F6E59
:10163600080E5F6021EF0BF023EF0BF04BEF0BF082
:101646005E50D96EDA6ADF30E832E832070B5F6E39
:10165600010E606E5F2A32EF0BF0D89060365F2E77
:1016660030EF0BF05E50D96EDA6ADF50070B020DD1
:10167600F350010FD96EDA6ADECF61F0DDCF62F08A
:1016860061C0D9FF62C0DAFF6050DF1A4DEF0BF080
:10169600000E636E635012000001AA51D8B456EFD3
:1016A6000BF058EF0BF08BEF0BF0AA51D96EDA6AFC
:1016B600DF50070BAB6F050EAB6164EF0BF066EF07
:1016C6000BF08BEF0BF0AA51D96EDA6ADF30E832F5
:1016D600E832070BAB6F080EAB6174EF0BF076EFD9
:1016E6000BF08BEF0BF0AAC0A2F0EBEC09F00001B7
:1016F600AC6FAAC0A2F0AA51D96EDA6A000EDFBE9C
:10170600010EA36F46EC09F00001AC6F8DEF0BF0F4
:10171600000EAC6FAC511200676EF2906750D8A401
:1017260097EF0BF099EF0BF0B0EF0BF03E503F1038
:10173600D8B4A0EF0BF0A2EF0BF0CDEF0BF002D870
:10174600AEEF0BF00500FA6E3E50FD6E3F50FE6E9A
:10175600FF6AFA501200CDEF0BF06704D8A4B6EF7B
:101766000BF0B8EF0BF0CDEF0BF03C503D10D8B4BA
:10177600BFEF0BF0C1EF0BF0CDEF0BF002D8CDEFC2
:101786000BF00500FA6E3C50FD6E3D50FE6EFF6A92
:10179600FA5012001200676EF2906750D8A4D6EF86
:1017A6000BF0D8EF0BF0EFEF0BF042504310D8B42C
:1017B600DFEF0BF0E1EF0BF00CEF0CF002D8EDEFE2
:1017C6000BF00500FA6E4250FD6E4350FE6EFF6A46
:1017D600FA5012000CEF0CF06704D8A4F5EF0BF0EA
:1017E600F7EF0BF00CEF0CF040504110D8B4FEEFC1
:1017F6000BF000EF0CF00CEF0CF002D80CEF0CF035
:101806000500FA6E4050FD6E4150FE6EFF6AFA50BA
:1018160012001200676EF2906750D8A415EF0CF014
:1018260017EF0CF02EEF0CF046504710D8B41EEF11
:101836000CF020EF0CF04BEF0CF002D82CEF0CF074
:101846000500FA6E4650FD6E4750FE6EFF6AFA506E
:1018560012004BEF0CF06704D8A434EF0CF036EF0F
:101866000CF04BEF0CF044504510D8B43DEF0CF0A3
:101876003FEF0CF04BEF0CF002D84BEF0CF00500ED
:10188600FA6E4450FD6E4550FE6EFF6AFA50120025
:101896001200676EF2906750D8A454EF0CF056EF22
:1018A6000CF06DEF0CF04A504B10D8B45DEF0CF015
:1018B6005FEF0CF08AEF0CF002D86BEF0CF005002E
:1018C600FA6E4A50FD6E4B50FE6EFF6AFA501200D9
:1018D6008AEF0CF06704D8A473EF0CF075EF0CF0E8
:1018E6008AEF0CF048504910D8B47CEF0CF07EEF2C
:1018F6000CF08AEF0CF002D88AEF0CF00500FA6EB5
:101906004850FD6E4950FE6EFF6AFA5012001200F2
:101916000001AD51D8B492EF0CF094EF0CF0C3EF88
:101926000CF05DC0B0F0AD51D96EDA6ADF50070B2E
:10193600AE6FB051AE19F80BAE19B06FAD51D96E8E
:10194600DA6ADF30E832E832070BAE6FAE47AE47F1
:10195600AE47B051AE19C70BAE19B06FB09DAD51C1
:10196600D96EDA6ADFAC02D0B08F02D00001B09F28
:10197600B00EAA6F4FEC0BF00001AF6FC5EF0CF085
:10198600000EAF6FAF5112006450D8B4CDEF0CF01B
:10199600CFEF0CF0FBEF0CF05AC066F06450D96E36
:1019A600DA6ADF50070B656E66506518F80B651826
:1019B600666E6450D96EDA6ADF30E832E832070BB9
:1019C600656E65466546654666506518C70B6518BB
:1019D600666E669C6450D96EDA6ADFAC02D0668E9B
:1019E60001D0669E660E5E6EFBEC0AF0FBEF0CF015
:1019F6001200010E0001A56FA251D8B405EF0DF03B
:101A060007EF0DF00FEF0DF013EF0DF0F1902DEF46
:101A16000DF0F1802DEF0DF0000EA56F2DEF0DF0FE
:101A2600A251D96EDA6A050ED926DF50A36FA46BD0
:101A3600A451000AD8B422EF0DF00FEF0DF0A35118
:101A4600000AD8B409EF0DF0010AD8B40CEF0DF076
:101A56000FEF0DF0A5511200920EF66E1B0EF76EEB
:101A6600000EF86E00EE80F010EE22F00900F5CFC1
:101A7600EEFFE550E150FAE1F80EF66E1A0EF76E3B
:101A8600000EF86E00EE01F010EE3BF00900F5CF07
:101A9600EEFFE550E150FAE100EE3CF0220EEE6A70
:101AA600E806FDE16F906F920001DAEF0DF000019C
:101AB600A951D8B461EF0DF063EF0DF078EF0DF09A
:101AC600F296F290A9C0A2F0FCEC0CF00001A9512C
:101AD600040FA26FEBEC09F0A9C0A2F087EC0AF0A4
:101AE6000001AA6FF2867AEF0DF0000EAA6FAA51D6
:101AF6001200890F8A0F8B0F8C0F8D0F920F930F89
:101B0600940F950F960F020A121A004B0001020A53
:101B160001E41BE41B7901C61BC61B7101D01BD057
:0D1B26001B6901DA1BDA1B61011A120A02A9
:101B34003B0E0001AD6F8BEC0CF03A0E0001AD6F63
:101B44008BEC0CF0390E0001AD6F8BEC0CF0380E01
:101B54000001AD6F8BEC0CF00001B16FB1511200BC
:101B64009AEC0DF0320E0001A96F5AEC0DF02C0E18
:101B74000001A96F5AEC0DF0260E0001A96F5AEC72
:101B84000DF0200E0001A96F5AEC0DF01200800F29
:101B9400810F820F830F840F323A030B131B232B05
:101BA400333B020A121A626A727A020A121A222A4F
:101BB400B2EC0DF0D08EF28EF28CDFEF0DF033EF3D
:101BC40000F0390E646EC7EC0CF012003A0E646E2D
:101BD400C7EC0CF012003B0E646EC7EC0CF0120064
:101BE400380E646EC7EC0CF01200F0921200F09004
:061BF4001200F292120043
:020000040030CA
:0E000000FF02091EFF8181FF0FC00FE00F40BD
:00000001FF
