:0400000071EF0CF0A0
:10100000003738392F3435362A3132332D63303DAD
:101010002B48656C6C6F20416C6C004C6F6164698F
:071020006E67002569000066
:10102800010E546E4E50D8B41CEF08F01EEF08F0B5
:1010380091EF08F04E50D96EDA6ADF50070B4F6E09
:10104800050E4F602AEF08F02CEF08F091EF08F03A
:101058004E50D96EDA6ADF30E832E832070B4F6E4D
:10106800080E4F603AEF08F03CEF08F091EF08F0F7
:1010780095EF08F04E50D96EDA6ADF30E832E83280
:10108800070B4F6E010E506E4F2A4DEF08F0D890A7
:1010980050364F2E4BEF08F05050FF0A516E4E500D
:1010A800D96EDA6ADF50070B020DF3500B0FD96EB9
:1010B800DA6ADECF52F0DDCF53F052C0D9FF53C009
:1010C800DAFF5150DF16B5EF08F04E50D96EDA6AE4
:1010D800DF30E832E832070B4F6E010E506E4F2AB0
:1010E80078EF08F0D89050364F2E76EF08F04E5033
:1010F800D96EDA6ADF50070B020DF3500B0FD96E69
:10110800DA6ADECF51F0DDCF52F051C0D9FF52C0BC
:10111800DAFF5050DF12B5EF08F0000E546EB5EF4D
:1011280008F04E50D96EDA6ADFBC9DEF08F0A0EFE8
:1011380008F0010EA1EF08F0000E4F6E506A5050F3
:10114800000AD8B4AAEF08F091EF08F04F50000A4F
:10115800D8B43EEF08F0010AD8B469EF08F091EF6F
:1011680008F054501200010E556E4E50D8B4BFEF1F
:1011780008F0C1EF08F03EEF09F04E50D96EDA6A78
:10118800DF50070B506E050E5060CDEF08F0CFEF23
:1011980008F03EEF09F04E50D96EDA6ADF30E832D7
:1011A800E832070B506E080E5060DDEF08F0DFEFF5
:1011B80008F03EEF09F04E50D96EDA6ADFBCE7EF6F
:1011C80008F0E9EF08F03EEF09F042EF09F04E5061
:1011D800D96EDA6ADF30E832E832070B506E010E5A
:1011E800516E502AFAEF08F0D8905136502EF8EF89
:1011F80008F05150FF0A526E4E50D96EDA6ADF502D
:10120800070B020DF350010FD96EDA6ADECF53F0E7
:10121800DDCF54F053C0D9FF54C0DAFF5250DF1667
:1012280057EF09F04E50D96EDA6ADF30E832E8320B
:10123800070B506E010E516E502A25EF09F0D89019
:101248005136502E23EF09F04E50D96EDA6ADF502E
:10125800070B020DF350010FD96EDA6ADECF52F098
:10126800DDCF53F052C0D9FF53C0DAFF5150DF121F
:1012780057EF09F0000E556E57EF09F04F50506EBA
:10128800516A5150000AD8B44CEF09F03EEF09F00A
:101298005050000AD8B4EBEF08F0010AD8B416EFA2
:1012A80009F03EEF09F055501200000E736E010E62
:1012B800736E480E6A6E010E6B6E140E6C6E400EE5
:1012C8006D6E000E6E6EABEC0BF0746E030E726EEC
:1012D8008A0E716E560EE82EFED7712EFCD7722E2E
:1012E800FAD7480E6A6E010E6B6E140E6C6E380ECD
:1012F8006D6E000E6E6EABEC0BF0746E030E726EBC
:101308008A0E716E560EE82EFED7712EFCD7722EFD
:10131800FAD7480E6A6E010E6B6E140E6C6E300EA4
:101328006D6E000E6E6EABEC0BF0746E030E726E8B
:101338008A0E716E560EE82EFED7712EFCD7722ECD
:10134800FAD7480E6A6E010E6B6E140E6C6E280E7C
:101358006D6E000E6E6EABEC0BF0746E030E726E5B
:101368008A0E716E560EE82EFED7712EFCD7722E9D
:10137800FAD7480E6A6E010E6B6E140E6C6E200E54
:101388006D6E000E6E6EABEC0BF0746E030E726E2B
:101398008A0E716E560EE82EFED7712EFCD7722E6D
:1013A800FAD7480E6A6E010E6B6E140E6C6E920EB2
:1013B8006D6E000E6E6EABEC0BF0746E030E726EFB
:1013C8008A0E716E560EE82EFED7712EFCD7722E3D
:1013D800FAD7732A080E7364F4EF09F0F6EF09F0F0
:1013E8005DEF09F01200000E606E5E50D8B4FFEF9A
:1013F80009F001EF0AF066EF0AF05EC056F033EC30
:101408000BF0616E5E28566E33EC0BF0616E000EC9
:10141800606E5E506024020F566E33EC0BF0602A4B
:10142800070E60641AEF0AF01CEF0AF00DEF0AF0DD
:10143800340E5F6EF20EE82EFED75F2EFCD75EC02C
:1014480058F0380E596E70EC0BF00D0E5F6EFC0EF6
:10145800E82EFED75F2EFCD75EC058F0380E596EC6
:1014680070EC0BF0640EE82EFED75EC058F0380E14
:10147800596E70EC0BF05EC058F0010E596E70ECAE
:101488000BF05EC058F0020E596E70EC0BF05EC0A7
:1014980058F0060E596E70EC0BF05EC058F00C0E4A
:1014A800596E70EC0BF05EC058F0380E596E70EC47
:1014B8000BF05EC058F0800E596E70EC0BF0616E48
:1014C80068EF0AF0000E616E61501200000E616E46
:1014D8005F50D8B472EF0AF074EF0AF0D9EF0AF04F
:1014E8005FC056F033EC0BF0626E5F28566E33EC3B
:1014F8000BF0626E000E616E5F506124020F566E33
:1015080033EC0BF0612A030E61648DEF0AF08FEF64
:101518000AF080EF0AF0340E606EF20EE82EFED765
:10152800602EFCD75FC05CF0380E5D6E43EC0CF0AB
:101538000D0E606EFC0EE82EFED7602EFCD75FC045
:101548005CF0380E5D6E43EC0CF0640EE82EFED7AE
:101558005FC05CF0380E5D6E43EC0CF05FC05CF071
:10156800010E5D6E43EC0CF05FC05CF0020E5D6E28
:1015780043EC0CF05FC05CF0060E5D6E43EC0CF0C3
:101588005FC05CF00C0E5D6E43EC0CF05FC05CF06D
:10159800280E5D6E43EC0CF05FC05CF0800E5D6E53
:1015A80043EC0CF0626EDBEF0AF0000E626E6250E4
:1015B8001200010E646E5F50D8B4E5EF0AF0E7EF51
:1015C8000AF02FEF0BF0610612EF0BF05FC05CF032
:1015D8006150800F5D6E43EC0CF0646E31EF0BF0E0
:1015E8005FC05CF06150C00F5D6E43EC0CF0646E40
:1015F80031EF0BF05FC05CF06150940F5D6E43EC0F
:101608000CF0646E31EF0BF05FC05CF06150D40FEA
:101618005D6E43EC0CF0646E31EF0BF06050626E5F
:10162800636A6350000AD8B41CEF0BF031EF0BF07B
:101638006250010AD8B4EAEF0AF0030AD8B4F4EF0A
:101648000AF0010AD8B4FEEF0AF0070AD8B408EF86
:101658000BF031EF0BF0000E646E64501200565020
:10166800D8B439EF0BF03BEF0BF06CEF0BF05650A2
:10167800D96EDA6ADF50070B576E050E576047EFD1
:101688000BF049EF0BF06CEF0BF05650D96EDA6A9D
:10169800DF30E832E832070B576E080E576057EF15
:1016A8000BF059EF0BF06CEF0BF056C04EF014EC4A
:1016B80008F0586E56C04EF05650D96EDA6A000ED1
:1016C800DFBE010E4F6EB7EC08F0586E6EEF0BF0F0
:1016D800000E586E58501200000E5D6E5850D8B467
:1016E80078EF0BF07AEF0BF0A7EF0BF058C04EF045
:1016F800000E4F6EB7EC08F0000E5D6E58505D247A
:10170800020F4E6E5DC05AF059C05BF05A2A8FEF37
:101718000BF0D8905B325A2E8DEF0BF05B50010B1B
:101728004F6EB7EC08F05D2A070E5D649EEF0BF074
:10173800A0EF0BF082EF0BF058C056F0C3EC0CF0A2
:101748005C6EA9EF0BF0000E5C6E5C501200000E90
:10175800706E6A50D8B4B3EF0BF0B5EF0BF0E0EF52
:101768000BF06AC05CF06E50080DF350400F5D6ED0
:1017780043EC0CF0000E706E6AC05CF06D50702483
:10178800D96EDA6ADF505D6E15EC0CF0702A070E20
:101798007064D1EF0BF0D3EF0BF0C0EF0BF06AC021
:1017A80065F06BC066F06CC067F06EC068F001EC65
:1017B8000DF06F6EE2EF0BF0000E6F6E6F501200BF
:1017C800000E5B6E5650D8B4ECEF0BF0EEEF0BF05A
:1017D80011EF0CF0000E5B6E56505B24020F4E6E3C
:1017E8005BC058F057C059F0582AFDEF0BF0D8905D
:1017F8005932582EFBEF0BF05950010B4F6EB7ECD6
:1018080008F05A6E5B2A030E5B640DEF0CF00FEFC5
:101818000CF0F0EF0BF013EF0CF0000E5A6E5A506C
:1018280012005C50D8B41BEF0CF01DEF0CF03FEF2A
:101838000CF05CC04EF0010E4F6EB7EC08F05E6E17
:101848005CC056F05D380F0B576EE4EC0BF05E6E23
:101858005CC056F0E2EC0CF05E6E5CC056F05DC009
:1018680057F0E4EC0BF05E6E5CC056F0E2EC0CF066
:101878005E6E41EF0CF0000E5E6E5E5012005C5022
:10188800D8B449EF0CF04BEF0CF06DEF0CF05CC0E6
:101898004EF0000E4F6EB7EC08F05E6E5CC056F06E
:1018A8005D380F0B576EE4EC0BF05E6E5CC056F0C3
:1018B800E2EC0CF05E6E5CC056F05DC057F0E4ECF4
:1018C8000BF05E6E5CC056F0E2EC0CF05E6E6FEFF3
:1018D8000CF0000E5E6E5E5012003E0EF66E1A0E92
:1018E800F76E000EF86E00EE80F010EE1AF00900A8
:1018F800F5CFEEFFE550E150FAE1380EF66E190E1D
:10190800F76E000EF86E00EE01F010EE4DF00900D3
:10191800F5CFEEFFE550E150FAE100EE74F0080E65
:10192800EE6AE806FDE1000EF86E000137EF0DF0F3
:10193800890F8A0F8B0F8C0F8D0F920F930F940FB7
:10194800950F960F03323A030B131B232B333B0ED1
:101958000A1F1F1F1F1F000E0A111F1F1F1F000E27
:101968000A11111F1F1F000E0A1111111F1F000E4F
:0D1978000A111111111F00020A121A222A71
:101986005650D8B4C9EF0CF0CBEF0CF0DEEF0CF0EC
:1019960056284E6E010E4F6EB7EC08F0030EE82E79
:1019A600FED7000056284E6E000E4F6EB7EC08F0BC
:1019B600576EE0EF0CF0000E576E5750120056505F
:1019C600D8B4E8EF0CF0EAEF0CF0FDEF0CF0562877
:1019D6004E6E010E4F6EB7EC08F0030EE82EFED7E2
:1019E600000056284E6E000E4F6EB7EC08F0576E8C
:1019F600FFEF0CF0000E576E575012006550D8B42A
:101A060007EF0DF009EF0DF01BEF0DF065C05FF06D
:101A160066C060F067C061F0DDEC0AF0696E65C013
:101A26005CF068C05DF015EC0CF0696E1DEF0DF012
:101A3600000E696E69501200800F810F820F830FAE
:101A4600840F020A121A626A727A0E0E1F1F1F1F75
:101A56001F00480E5F6E6AEC0AF0160E5E6EF7EC1B
:101A660009F0636E635012003FEC0DF059EC09F07B
:0E1A76003BEF0DF000EF00F02CEC0DF0120035
:020000040030CA
:0E000000FF02091EFF8181FF0FC00FE00F40BD
:00000001FF
