:040000000DEF0CF004
:10100000000051EC0CF0260E346E2A0E356E75EC95
:101010000AF04C6E230E346E290E356E75EC0AF014
:101020004C6E2A50D8A417EF08F019EF08F031EFF2
:1010300008F0010E4226000E43224422452245506C
:1010400044100BE1F50E425C010E4358D8A02BEF83
:1010500008F02DEF08F03BEF08F0000E226E3BEF9A
:1010600008F0000E426E000E436E000E446E000E3D
:10107000456E010E226E21502218D8B442EF08F0BE
:1010800044EF08F064EF08F022C021F02250D8A409
:101090004CEF08F04EEF08F064EF08F04750D8A48A
:1010A00054EF08F056EF08F05EEF08F02C0E356EA6
:1010B00080EC0BF0010E476E64EF08F02C0E356EDD
:1010C000B7EC0BF0000E476E2950D8A46AEF08F079
:1010D0006CEF08F084EF08F0010E3E26000E3F2270
:1010E00040224122415040100BE1F50E3E5C010EC2
:1010F0003F58D8A07EEF08F080EF08F08EEF08F0A0
:10110000000E206E8EEF08F0000E3E6E000E3F6E59
:10111000000E406E000E416E010E206E1F50201812
:10112000D8B495EF08F097EF08F003EF08F020C06F
:101130001FF02050D8A49FEF08F0A1EF08F003EFB4
:1011400008F0020E4618D8A4A8EF08F0AAEF08F09D
:10115000ACEF08F0000E466E462AB7EF08F0EEEC52
:101160000BF003EF08F0CDEC0AF003EF08F0465067
:101170003C6E3D6A3D50000AD8B4C1EF08F0CCEF98
:1011800008F03C50010AD8B4AFEF08F0030AD8B415
:10119000B3EF08F0CCEF08F003EF08F000EF00F039
:1011A000010E336E2D50D8B4D8EF08F0DAEF08F006
:1011B0004DEF09F02D50D96EDA6ADF50070B2E6E15
:1011C000050E2E60E6EF08F0E8EF08F04DEF09F0AD
:1011D0002D50D96EDA6ADF30E832E832070B2E6E16
:1011E000080E2E60F6EF08F0F8EF08F04DEF09F06A
:1011F00051EF09F02D50D96EDA6ADF30E832E8326B
:10120000070B2E6E010E2F6E2E2A09EF09F0D890D3
:101210002F362E2E07EF09F02F50FF0A306E2D507B
:10122000D96EDA6ADF50070B020DF350150FD96E35
:10123000DA6ADECF31F0DDCF32F031C0D9FF32C013
:10124000DAFF3050DF1671EF09F02D50D96EDA6AEF
:10125000DF30E832E832070B2E6E010E2F6E2E2A99
:1012600034EF09F0D8902F362E2E32EF09F02D50A2
:10127000D96EDA6ADF50070B020DF350150FD96EE5
:10128000DA6ADECF30F0DDCF31F030C0D9FF31C0C7
:10129000DAFF2F50DF1271EF09F0000E336E71EF9D
:1012A00009F02D50D96EDA6ADFBC59EF09F05CEF16
:1012B00009F0010E5DEF09F0000E2E6E2F6A2F501F
:1012C000000AD8B466EF09F04DEF09F02E50000A7D
:1012D000D8B4FAEF08F0010AD8B425EF09F04DEFC1
:1012E00009F033501200010E346E2D50D8B47BEF4C
:1012F00009F07DEF09F0FAEF09F02D50D96EDA6AA6
:10130000DF50070B2F6E050E2F6089EF09F08BEF72
:1013100009F0FAEF09F02D50D96EDA6ADF30E832C1
:10132000E832070B2F6E080E2F6099EF09F09BEF44
:1013300009F0FAEF09F02D50D96EDA6ADFBCA3EF9D
:1013400009F0A5EF09F0FAEF09F0FEEF09F02D50D2
:10135000D96EDA6ADF30E832E832070B2F6E010E01
:10136000306E2F2AB6EF09F0D89030362F2EB4EF1A
:1013700009F03050FF0A316E2D50D96EDA6ADF5015
:10138000070B020DF3500B0FD96EDA6ADECF32F085
:10139000DDCF33F032C0D9FF33C0DAFF3150DF1672
:1013A00013EF0AF02D50D96EDA6ADF30E832E832F6
:1013B000070B2F6E010E306E2F2AE1EF09F0D89047
:1013C00030362F2EDFEF09F02D50D96EDA6ADF505C
:1013D000070B020DF3500B0FD96EDA6ADECF31F036
:1013E000DDCF32F031C0D9FF32C0DAFF3050DF122A
:1013F00013EF0AF0000E346E13EF0AF02E502F6E2A
:10140000306A3050000AD8B408EF0AF0FAEF09F059
:101410002F50000AD8B4A7EF09F0010AD8B4D2EFD0
:1014200009F0FAEF09F034501200010E336E2D501E
:10143000D8B41DEF0AF01FEF0AF071EF0AF02E503A
:10144000D8B425EF0AF027EF0AF071EF0AF02D501B
:10145000D96EDA6ADF50070B2F6E050E2F6033EF5F
:101460000AF035EF0AF071EF0AF02D50D96EDA6A02
:10147000DF30E832E832070B2F6E080E2F6043EFA3
:101480000AF045EF0AF071EF0AF02E50D96EDA6AD1
:101490002D50E16EE26AE730E832E832070B2F6E3A
:1014A0002D50E16EE26AE750070B020DF350010F79
:1014B000E16EE26AE6CF30F0E5CF31F030C0E1FF17
:1014C00031C0E2FFE750326E2F2A69EF0AF0D89060
:1014D00032322F2E67EF0AF03250010BDF6E73EFBE
:1014E0000AF0000E336E33501200000E396E345085
:1014F000D8B47DEF0AF07FEF0AF0C9EF0AF035505B
:10150000D8B485EF0AF087EF0AF0C9EF0AF034C0CB
:101510002DF0390E2E6E15EC0AF0386EAFEF0AF092
:101520003904D8A496EF0AF098EF0AF09EEF0AF07B
:101530003550D96EDA6ADF6ACBEF0AF03550D96ED2
:10154000DA6A010EDF6ECBEF0AF03904D8A4ABEFF4
:101550000AF0ADEF0AF098EF0AF09EEF0AF034506F
:10156000D96EDA6A020ED926DF50366E376A3750E6
:10157000000AD8B4BEEF0AF0CBEF0AF03650000AEA
:10158000D8B490EF0AF0010AD8B4A5EF0AF0CBEF77
:101590000AF0000E386E385012002B0E356E80ECBB
:1015A0000BF0030E396E8A0E386E560EE82EFED7FB
:1015B000382EFCD7392EFAD72B0E356EB7EC0BF040
:1015C000030E396E8A0E386E560EE82EFED7382E70
:1015D000FCD7392EFAD72B0E356E80EC0BF0030EAC
:1015E000396E8A0E386E560EE82EFED7382EFCD78E
:1015F000392EFAD72B0E356EB7EC0BF0030E396E81
:101600008A0E386E560EE82EFED7382EFCD7392EAD
:10161000FAD712003550D8B410EF0BF012EF0BF0E0
:1016200043EF0BF03550D96EDA6ADF50070B366E98
:10163000050E36601EEF0BF020EF0BF043EF0BF0C2
:101640003550D96EDA6ADF30E832E832070B366E91
:10165000080E36602EEF0BF030EF0BF043EF0BF07F
:1016600035C02DF0D0EC08F0376E35C02DF0355078
:10167000D96EDA6A000EDFBE010E2E6E73EC09F031
:10168000376E45EF0BF0000E376E375012003850B2
:10169000D8B44DEF0BF04FEF0BF07CEF0BF04BC0DD
:1016A0003BF03850D96EDA6ADF50070B396E3B5089
:1016B0003918F80B39183B6E3850D96EDA6ADF30BA
:1016C000E832E832070B396E3946394639463B5025
:1016D0003918C70B39183B6E3B9C3850D96EDA6A03
:1016E000DFAC02D03B8E01D03B9E3B0E356E0AEC48
:1016F0000BF03A6E7EEF0BF0000E3A6E3A5012008D
:101700003550D8B486EF0BF088EF0BF0B6EF0BF046
:101710004AC037F03550D96EDA6ADF50070B366EA3
:1017200037503618F80B3618376E3550D96EDA6ADE
:10173000DF30E832E832070B366E3646364636463C
:1017400037503618C70B3618376E379C3550D96E60
:10175000DA6ADFAC02D0378E01D0379E370E2D6E9D
:10176000010E2E6E73EC09F0B6EF0BF0120035503F
:10177000D8B4BDEF0BF0BFEF0BF0EDEF0BF049C0AD
:1017800037F03550D96EDA6ADF50070B366E3750B6
:101790003618F80B3618376E3550D96EDA6ADF30E6
:1017A000E832E832070B366E364636463646375054
:1017B0003618C70B3618376E379C3550D96EDA6A33
:1017C000DFAC02D0378E01D0379E370E2D6E000E63
:1017D0002E6E73EC09F0EDEF0BF012002B0E356E50
:1017E00080EC0BF0030E396E8A0E386E560EE82E22
:1017F000FED7382EFCD7392EFAD72B0E356EB7EC24
:101800000BF0030E396E8A0E386E560EE82EFED798
:10181000382EFCD7392EFAD71200500EF66E180E5D
:10182000F76E000EF86E00EE01F010EE2CF00900DD
:10183000F5CFEEFFE550E150FAE100EE3EF00E0E7E
:10184000EE6AE806FDE1000EF86E000101EF08F017
:10185000800F810F820F830F840F890F8A0F8B0FE8
:101860008C0F8D0F920F930F940F950F960F010110
:101870000101CB010143010001010A023450D8B437
:1018800044EF0CF046EF0CF04DEF0CF034C02DF0AF
:10189000D0EC08F0356E4FEF0CF0000E356E355081
:1018A0001200260E346E3EEC0CF02C0E386E47EC17
:1018B0000BF0230E346E3EEC0CF02B0E386E47EC22
:0418C0000BF0120017
:020000040030CA
:0E000000FF02091EFF8181FF0FC00FE00F40BD
:00000001FF
