:0400000033EF00F0EA
:060008007D824DED0EF0BB
:100018007D80E0CF02F0F0A614EF00F016EF00F0BC
:100028001FEF00F0F0A01BEF00F01DEF00F01FEF36
:1000380000F089EC14F0F0A824EF00F026EF00F0AF
:100048002FEF00F0F0A22BEF00F02DEF00F02FEFD4
:1000580000F087EC14F002C0E0FF7D90100075EF0F
:0200680013F093
:10100000003738392F3435362A3132332D63303DAD
:051010002B2569000022
:101016004650800B4F6E46504624516E45AE16EF35
:1010260008F018EF08F019EF08F051805150D8B4C5
:101036001FEF08F021EF08F036EF08F05128D8A48A
:1010460027EF08F029EF08F031EF08F0000E436EA5
:10105600000E446E000E456E000E466E458E000E66
:10106600466E3EEF08F0000E436E000E446E000E14
:10107600456E000E466E4A50800B506E4F5050180B
:10108600D8B448EF08F04AEF08F04BEF08F04F8C61
:101096004A504A24506E49AE53EF08F055EF08F017
:1010A60056EF08F050805050D8B45CEF08F05EEF71
:1010B60008F073EF08F05028D8A464EF08F066EF44
:1010C60008F06EEF08F0000E476E000E486E000E38
:1010D600496E000E4A6E498E000E4A6E7BEF08F08E
:1010E600000E476E000E486E000E496E000E4A6EE8
:1010F6005150505CD8B082EF08F084EF08F0ABEFA7
:1011060008F04FAC89EF08F08BEF08F08DEF08F090
:10111600800E4F1A51C052F050C051F052C050F0DC
:1011260043C052F047C043F052C047F044C052F0AB
:1011360048C044F052C048F045C052F049C045F09E
:1011460052C049F046C052F04AC046F052C04AF07A
:10115600000E526E515050C04BF04C6A4B5E000E62
:101166004C5A4CBEC0EF08F04C5009E11A0E4B5CCD
:10117600D8A0C0EF08F0C2EF08F0F9EF08F043502E
:10118600441045104610D8A4CBEF08F0CEEF08F077
:10119600010ECFEF08F0000E526E000E436E000EE9
:1011A600446E000E456E000E466E50C051F002EFC2
:1011B60009F052A0E1EF08F0E3EF08F0E9EF08F0DC
:1011C600D89052300109526EEBEF08F0D8905232A7
:1011D60043A0F0EF08F0F2EF08F0F3EF08F0528EBC
:1011E60046344632453244324332512A5050515CDD
:1011F600D8A000EF09F002EF09F0DCEF08F04FBCD1
:1012060007EF09F009EF09F049EF09F05150D8A4AA
:101216000FEF09F011EF09F01BEF09F0000E436E16
:10122600000E446E000E456E000E466E6AEF0AF022
:101236004750432648504422495045224A504622A8
:1012460046A028EF09F02AEF09F0D6EF09F052A0E0
:101256002FEF09F031EF09F037EF09F0D89052304F
:101266000109526E39EF09F0D890523243A03EEF91
:1012760009F040EF09F041EF09F0528E463446324C
:10128600453244324332512AD6EF09F04750435C87
:1012960048504458495045584650800A4B6E4A506B
:1012A600800A4B58D8B05AEF09F05CEF09F087EF87
:1012B60009F04350475C4B6E445048584C6E4550BD
:1012C60049584D6E46504A584E6EFF0E4B24436E9B
:1012D600FF0E4C20446EFF0E4D20456EFF0E4E2035
:1012E600466E800E4F1A526C5250D8A47DEF09F00C
:1012F6007FEF09F08FEF09F0010E4326000E44221E
:10130600452246228FEF09F04750435E4850445A23
:101316004950455A4A50465A4350441045104610C3
:10132600D8A498EF09F09AEF09F0CFEF09F05250E0
:10133600D8A4A0EF09F0A2EF09F0CFEF09F0000E54
:10134600436E000E446E000E456E000E466E6AEF4A
:101356000AF0D890433644364536463652AEB6EF96
:1013660009F0B8EF09F0B9EF09F0438052A0BEEFDB
:1013760009F0C0EF09F0C4EF09F0D8805236C6EF85
:1013860009F0D89052365150D8B4CCEF09F0CEEFD0
:1013960009F0CFEF09F0510645AED4EF09F0D6EFCC
:1013A60009F0ACEF09F0000E506E52AEDDEF09F019
:1013B600DFEF09F0F7EF09F052C04BF07F0E4B1646
:1013C600D8B4E8EF09F0EAEF09F0EEEF09F0010E04
:1013D600506EF7EF09F043A0F3EF09F0F5EF09F0CF
:1013E600F7EF09F0EAEF09F05050D8B4FDEF09F035
:1013F600FFEF09F02AEF0AF0010E4326000E442201
:101406004522462246A00AEF0AF00CEF0AF02AEF20
:101416000AF043C04BF044C04CF045C04DF046C006
:101426004EF04E344E324D324C324B324BC043F0BE
:101436004CC044F04DC045F04EC046F05128D8B4DB
:1014460027EF0AF029EF0AF02AEF0AF0512A51286D
:10145600D8B430EF0AF032EF0AF03AEF0AF0515002
:10146600D8A438EF0AF03AEF0AF04CEF0AF0000E73
:10147600436E000E446E000E456E000E466E5150D1
:10148600D8A448EF0AF04AEF0AF04CEF0AF0000E33
:101496004F6E51A051EF0AF053EF0AF056EF0AF0E3
:1014A600458E57EF0AF0459ED8905130466E4FAEA6
:1014B6005FEF0AF061EF0AF062EF0AF0468E43C072
:1014C60043F044C044F045C045F046C046F0120023
:1014D6001450800B1D6E14501424236E13AE76EF39
:1014E6000AF078EF0AF079EF0AF023802350D8B497
:1014F6007FEF0AF081EF0AF094EF0AF02328D8A4D0
:1015060087EF0AF089EF0AF091EF0AF0000E116EEC
:10151600000E126E000E136E000E146E138E9CEFEC
:101526000AF0000E116E000E126E000E136E000E03
:10153600146E1850800B1D1A185018241E6E17AE04
:10154600A7EF0AF0A9EF0AF0AAEF0AF01E801E50D4
:10155600D8B4B0EF0AF0B2EF0AF0C5EF0AF01E28D1
:10156600D8A4B8EF0AF0BAEF0AF0C2EF0AF0000EFC
:10157600156E000E166E000E176E000E186E178E84
:10158600CDEF0AF0000E156E000E166E000E176EE9
:10159600000E186E1E50D8B4D3EF0AF0D5EF0AF03D
:1015A600DDEF0AF02350D8A4DBEF0AF0DDEF0AF0F6
:1015B600E7EF0AF0000E116E000E126E000E136EAB
:1015C600000E146E7FEF0CF017501102F3CF28F0C7
:1015D600F4CF29F028501F6E206A216A226A29500A
:1015E600246E256A266A276A16501202F3CF28F05F
:1015F600F4CF29F028501F26000E20222122222275
:1016060029502426000E25222622272215501302B1
:10161600F3CF28F0F4CF29F028501F26000E202201
:101626002122222229502426000E25222622272284
:1016360021C022F020C021F01FC020F01F6A1550E3
:101646001202F3CF28F0F4CF29F028501F26295094
:101656002022000E2122000E222216501102F3CF64
:1016660028F0F4CF29F028501F2629502022000EFA
:101676002122000E222221C022F020C021F01FC00C
:1016860020F01F6A15501102F3CF28F0F4CF29F08D
:1016960028501F2629502022000E2122000E222229
:1016A60017501202F3CF28F0F4CF29F02850242641
:1016B60029502522000E2622000E2722165013023C
:1016C600F3CF28F0F4CF29F02850242629502522DC
:1016D600000E2622000E272217501302F3CF28F001
:1016E600F4CF29F02850196E29501A6E1B6A1C6A0D
:1016F6001BC01CF01AC01BF019C01AF0196A195049
:1017060024261A5025221B5026221C5027221FC091
:1017160019F020C01AF021C01BF022C01CF0190ECF
:101726009AEF0BF0D8901C321B321A321932E82E7F
:1017360095EF0BF0195024261A5025221B5026220D
:101746001C50272221C022F020C021F01FC020F00B
:101756001F6A1E5023C019F01A6A1926000E1A2293
:10176600820E1924286EFF0E1A20296ED0EF0BF078
:10177600D890243625362636273622AEC5EF0BF00E
:10178600C7EF0BF0C8EF0BF02480D8901F36203639
:10179600213622362806D8A0290626AED5EF0BF02C
:1017A600D7EF0BF0BBEF0BF0000E1E6E22AEDEEF96
:1017B6000BF0E0EF0BF004EF0CF0FF0E1F14196EA8
:1017C600FF0E20141A6EFF0E21141B6E7F0E2214BC
:1017D6001C6E19501A101B101C10D8B4F5EF0BF024
:1017E600F7EF0BF0FBEF0BF0010E1E6E04EF0CF0A3
:1017F60024A000EF0CF002EF0CF004EF0CF0F7EF72
:101806000BF01E50D8B40AEF0CF00CEF0CF030EFD2
:101816000CF0010E2426000E25222622272227A0C0
:1018260017EF0CF019EF0CF030EF0CF024C019F0A4
:1018360025C01AF026C01BF027C01CF01C341C3231
:101846001B321A32193219C024F01AC025F01BC0F7
:1018560026F01CC027F0284A292A29BE3BEF0CF0A7
:10186600295008E12828D8A03BEF0CF03DEF0CF0FA
:1018760047EF0CF0000E246E000E256E800E266ECD
:101886007F0E276E75EF0CF029BE54EF0CF0295031
:1018960006E12804D8B052EF0CF054EF0CF060EFDC
:1018A6000CF0000E246E000E256E000E266E000E45
:1018B600276E000E1D6E75EF0CF028C023F0FF0E8C
:1018C6002416FF0E25167F0E2616000E271623A0B9
:1018D6006FEF0CF071EF0CF072EF0CF0268ED890D3
:1018E6002330276E1D50271224C011F025C012F098
:1018F60026C013F027C014F012002D50800B3A6E4C
:101906002D502D24416E2CAE8BEF0CF08DEF0CF08C
:101916008EEF0CF041804150D8B494EF0CF096EF66
:101926000CF0ABEF0CF04128D8A49CEF0CF09EEF26
:101936000CF0A6EF0CF0000E2A6E000E2B6E000EB9
:101946002C6E000E2D6E2C8E000E2D6EB3EF0CF04D
:10195600000E2A6E000E2B6E000E2C6E000E2D6EE3
:101966003150800B3A1A31503124426E30AEBEEF00
:101976000CF0C0EF0CF0C1EF0CF042804250D8B42E
:10198600C7EF0CF0C9EF0CF0DEEF0CF04228D8A43C
:10199600CFEF0CF0D1EF0CF0D9EF0CF0000E2E6E5D
:1019A600000E2F6E000E306E000E316E308E000E61
:1019B600316EE6EF0CF0000E2E6E000E2F6E000E4E
:1019C600306E000E316E2E502F1030103110D8A40C
:1019D600EFEF0CF0F1EF0CF009EF0DF0000E2A6EB0
:1019E600000E2B6E000E2C6E000E2D6E800E2C122D
:1019F6007F0E2D123A502D122AC02AF02BC02BF042
:101A06002CC02CF02DC02DF04CEF0EF04150D8A478
:101A16000FEF0DF011EF0DF01BEF0DF0000E2A6E1B
:101A2600000E2B6E000E2C6E000E2D6E4CEF0EF07F
:101A3600425041C032F0336A325E000E335A7F0E96
:101A460032243B6E000E33203C6E2AC036F02BC08B
:101A560037F02CC038F02DC039F0000E2A6E000E7B
:101A66002B6E000E2C6E000E2D6E000E3D6E000EBF
:101A76003E6E000E3F6E000E406E000E426E7CEF14
:101A86000DF04250D8B44AEF0DF04CEF0DF063EF75
:101A96000DF0D8903636373638363936D8902A365D
:101AA6002B362C362D3640AE5BEF0DF05DEF0DF08C
:101AB6005EEF0DF02A80D8903D363E363F364036F2
:101AC6002E50365C2F5037583050385831503958D0
:101AD600D8A070EF0DF072EF0DF07BEF0DF0408C9B
:101AE6002E50365E2F50375A3050385A3150395AA8
:101AF600422A190E426482EF0DF084EF0DF044EF96
:101B06000DF03650371038103910D8B48DEF0DF06F
:101B16008FEF0DF0A7EF0DF03D80A7EF0DF0D890F9
:101B26002A362B362C362D3640AE9CEF0DF09EEF26
:101B36000DF09FEF0DF02A80D8903D363E363F36A9
:101B460040363B06D8A03C062CAEACEF0DF0AEEF0F
:101B56000DF092EF0DF0000E426E40AEB5EF0DF0B7
:101B6600B7EF0DF0DBEF0DF0FF0E3D14326EFF0EFA
:101B76003E14336EFF0E3F14346E7F0E4014356EE6
:101B86003250331034103510D8B4CCEF0DF0CEEF00
:101B96000DF0D2EF0DF0010E426EDBEF0DF02AA034
:101BA600D7EF0DF0D9EF0DF0DBEF0DF0CEEF0DF026
:101BB6004250D8B4E1EF0DF0E3EF0DF007EF0EF071
:101BC600010E2A26000E2B222C222D222DA0EEEF0E
:101BD6000DF0F0EF0DF007EF0EF02AC032F02BC03B
:101BE60033F02CC034F02DC035F035343532343274
:101BF6003332323232C02AF033C02BF034C02CF0EC
:101C060035C02DF03B4A3C2A3CBE12EF0EF03C504C
:101C160008E13B28D8A012EF0EF014EF0EF01FEFEC
:101C26000EF0000E3C6E3B68000E2A6E000E2B6E08
:101C3600000E2C6E000E2D6E3CBE2CEF0EF03C50AE
:101C460006E13B04D8B02AEF0EF02CEF0EF03AEF87
:101C56000EF0000E3C6E000E3B6E000E2A6E000E5D
:101C66002B6E000E2C6E000E2D6E000E3A6E3BC0D3
:101C760041F041A041EF0EF043EF0EF046EF0EF0BB
:101C86002C8E47EF0EF02C9ED89041302D6EFDEF36
:101C96000CF012000600F2A853EF0EF055EF0EF00E
:101CA6005EEF0EF0F2A25AEF0EF05CEF0EF05EEF72
:101CB6000EF08BEC14F0F2A663EF0EF065EF0EF06B
:101CC60080EF0EF0F2A06AEF0EF06CEF0EF080EFF0
:101CD6000EF081B871EF0EF073EF0EF080EF0EF09C
:101CE6007204D8A479EF0EF07BEF0EF080EF0EF0C1
:101CF600000E726E000E4FEC14F0F2A685EF0EF099
:101D060087EF0EF0A2EF0EF0F2A08CEF0EF08EEF42
:101D16000EF0A2EF0EF081A893EF0EF095EF0EF005
:101D2600A2EF0EF07250D8A49BEF0EF09DEF0EF0CE
:101D3600A2EF0EF0010E726E010E4FEC14F0F2A639
:101D4600A7EF0EF0A9EF0EF0C4EF0EF0F2A0AEEF83
:101D56000EF0B0EF0EF0C4EF0EF081BAB5EF0EF054
:101D6600B7EF0EF0C4EF0EF07104D8A4BDEF0EF07D
:101D7600BFEF0EF0C4EF0EF0000E716E000E42ECD7
:101D860014F0F2A6C9EF0EF0CBEF0EF0E6EF0EF070
:101D9600F2A0D0EF0EF0D2EF0EF0E6EF0EF081AA31
:101DA600D7EF0EF0D9EF0EF0E6EF0EF07150D8A493
:101DB600DFEF0EF0E1EF0EF0E6EF0EF0010E716EC2
:101DC600010E42EC14F0F2A6EBEF0EF0EDEF0EF082
:101DD60008EF0FF0F2A0F2EF0EF0F4EF0EF008EFBE
:101DE6000FF081BCF9EF0EF0FBEF0EF008EF0FF0ED
:101DF6007004D8A401EF0FF003EF0FF008EF0FF017
:101E0600000E706E000E35EC14F0F2A60DEF0FF01A
:101E16000FEF0FF02AEF0FF0F2A014EF0FF016EF0E
:101E26000FF02AEF0FF081AC1BEF0FF01DEF0FF054
:101E36002AEF0FF07050D8A423EF0FF025EF0FF024
:101E46002AEF0FF0010E706E010E35EC14F0F2A6BB
:101E56002FEF0FF031EF0FF04CEF0FF0F2A036EF4F
:101E66000FF038EF0FF04CEF0FF081BE3DEF0FF0A3
:101E76003FEF0FF04CEF0FF06F04D8A445EF0FF0D3
:101E860047EF0FF04CEF0FF0000E6F6E000E28ECD0
:101E960014F0F2A651EF0FF053EF0FF06EEF0FF0C4
:101EA600F2A058EF0FF05AEF0FF06EEF0FF081AE81
:101EB6005FEF0FF061EF0FF06EEF0FF06F50D8A4E9
:101EC60067EF0FF069EF0FF06EEF0FF0010E6F6E18
:101ED600010E28EC14F09DAC73EF0FF075EF0FF0C8
:101EE6007EEF0FF09EAC7AEF0FF07CEF0FF07EEFF7
:101EF6000FF08DEC14F0F2AA83EF0FF085EF0FF0E0
:101F06008EEF0FF0F2A48AEF0FF08CEF0FF08EEF4A
:101F16000FF07DEC14F09DA093EF0FF095EF0FF00E
:101F26009EEF0FF09EA09AEF0FF09CEF0FF09EEF42
:101F36000FF077EC14F09DA2A3EF0FF0A5EF0FF0D2
:101F4600AEEF0FF09EA2AAEF0FF0ACEF0FF0AEEFE0
:101F56000FF083EC14F0A0A2B3EF0FF0B5EF0FF083
:101F6600BEEF0FF0A1A2BAEF0FF0BCEF0FF0BEEF7D
:101F76000FF06AEC14F07D9211000B6E0B50D8B482
:101F8600C7EF0FF0C9EF0FF0EBEF0FF006BED0EF83
:101F96000FF0CEEF0FF0EBEF0FF003C007F004C029
:101FA60008F005C009F006C00AF0071E081E091E43
:101FB6000A1E072A000E082209220A2207C00DF06F
:101FC60008C00EF009C00FF00AC010F0F3EF0FF0D2
:101FD60003C00DF004C00EF005C00FF006C010F0EF
:101FE6000350041005100610D8A4FCEF0FF0FEEF06
:101FF6000FF008EF10F0000E036E000E046E000ED8
:10200600056E000E066E99EF10F0960E0C6E12EF2E
:1020160010F00C2AD89010320F320E320D32000E0C
:102026000D14076E000E0E14086E000E0F14096EC6
:10203600FE0E10140A6E0750081009100A10D8A4D4
:1020460027EF10F029EF10F00CEF10F037EF10F03B
:102056000C2A010E0D26000E0E220F221022D890F9
:1020660010320F320E320D32000E0D14076E000EB6
:102076000E14086E000E0F14096EFF0E10140A6E71
:102086000750081009100A10D8A44CEF10F04EEFB4
:1020960010F02BEF10F056EF10F00C06D8900D361E
:1020A6000E360F3610360FBE5BEF10F05DEF10F0F8
:1020B60065EF10F0020E0C6063EF10F065EF10F0A4
:1020C60050EF10F00CB06AEF10F06CEF10F06DEFFF
:1020D60010F00F9ED8900C320CC007F0086A096AFF
:1020E6000A6A07C00AF0096A086A076A07500D12E9
:1020F60008500E1209500F120A5010120B50D8B485
:1021060087EF10F089EF10F091EF10F006BE90EF18
:1021160010F08EEF10F091EF10F0108E0DC003F05E
:102126000EC004F00FC005F010C006F01200000E3D
:10213600156E000E166E800E176E400E186E5D50F0
:10214600D96EDA6A020ED926DECF03F0DECF04F0AE
:10215600DECF05F0DECF06F0000EC0EC0FF003C0B8
:1021660011F004C012F005C013F006C014F06BECB9
:102176000AF011C05FF012C060F013C061F014C025
:1021860062F05D50D96EDA6A070ED926DF505E6EB0
:102196005E50036E046A056A066A000EC0EC0FF014
:1021A60003C015F004C016F005C017F006C018F0FD
:1021B6005FC011F060C012F061C013F062C014F08D
:1021C6006BEC0AF011C063F012C064F013C065F046
:1021D60014C066F0000E476E000E486E800E496E03
:1021E600BF0E4A6E5D50D96EDA6A060ED926DF50EA
:1021F6005E6E5E50036E046A056A066A000EC0ECE7
:102206000FF003C015F004C016F005C017F006C0A5
:1022160018F063C011F064C012F065C013F066C018
:1022260014F06BEC0AF011C02EF012C02FF013C0A0
:1022360030F014C031F0000E2A6E240E2B6E740E90
:102246002C6E4A0E2D6E80EC0CF02AC043F02BC08B
:1022560044F02CC045F02DC046F00BEC08F043C00E
:1022660053F044C054F045C055F046C056F07CECDF
:1022760012F05350CB6E140ECB6E1200010E0A6E86
:102286000350D8B449EF11F04BEF11F0C8EF11F03D
:102296000350D96EDA6ADF50070B056E050E05602E
:1022A60057EF11F059EF11F0C8EF11F00350D96E46
:1022B600DA6ADF30E832E832070B056E080E056091
:1022C60067EF11F069EF11F0C8EF11F00350D96E06
:1022D600DA6ADFBC71EF11F073EF11F0C8EF11F09D
:1022E600CCEF11F00350D96EDA6ADF30E832E8320B
:1022F600070B056E010E066E052A84EF11F0D890C5
:102306000636052E82EF11F00650FF0A076E0350BF
:10231600D96EDA6ADF50070B020DF3508A0FD96EB9
:10232600DA6ADECF08F0DDCF09F008C0D9FF09C0B0
:10233600DAFF0750DF16E1EF11F00350D96EDA6AC3
:10234600DF30E832E832070B056E010E066E052A0D
:10235600AFEF11F0D8900636052EADEF11F0035011
:10236600D96EDA6ADF50070B020DF3508A0FD96E69
:10237600DA6ADECF07F0DDCF08F007C0D9FF08C064
:10238600DAFF0650DF12E1EF11F0000E0A6EE1EF00
:1023960011F00450056E066A0650000AD8B4D6EF4E
:1023A60011F0C8EF11F00550000AD8B475EF11F01E
:1023B600010AD8B4A0EF11F0C8EF11F00A501200CC
:1023C600010E096E0350D8B4EBEF11F0EDEF11F0EA
:1023D60060EF12F00350D96EDA6ADF50070B046E15
:1023E600050E0460F9EF11F0FBEF11F060EF12F04B
:1023F6000350D96EDA6ADF30E832E832070B046E32
:10240600080E046009EF12F00BEF12F060EF12F005
:1024160064EF12F00350D96EDA6ADF30E832E83240
:10242600070B046E010E056E042A1CEF12F0D890FD
:102436000536042E1AEF12F00550FF0A066E0350F9
:10244600D96EDA6ADF50070B020DF350940FD96E7E
:10245600DA6ADECF07F0DDCF08F007C0D9FF08C083
:10246600DAFF0650DF167AEF12F00350D96EDA6AF9
:10247600DF30E832E832070B046E010E056E042ADF
:1024860047EF12F0D8900536042E45EF12F00350B0
:10249600D96EDA6ADF50070B020DF350940FD96E2E
:1024A600DA6ADECF06F0DDCF07F006C0D9FF07C037
:1024B600DAFF0550DF127AEF12F0000E096E7AEF9E
:1024C60012F00350D96EDA6ADFBC6CEF12F06FEFD0
:1024D60012F0010E70EF12F0000E000AD8B40DEFE4
:1024E60012F0010AD8B438EF12F060EF12F009507A
:1024F6001200553456345C6E5C50D8A485EF12F049
:1025060087EF12F091EF12F0000E536E000E546E2C
:10251600000E556E000E566EFEEF12F053C057F0C9
:1025260054C058F055C059F056C05AF0200EA1EFCD
:1025360012F0D8905A32593258325732E82E9CEF60
:1025460012F057505B6E558EFF0E5316FF0E541643
:10255600FF0E5516000E5616960E5C5E5CBEB8EF64
:1025660012F0B6EF12F0CEEF12F05C50800A970F21
:10257600D8B0C0EF12F0C2EF12F0C4EF12F087EF3E
:1025860012F0D89056325532543253325C3EC4EF74
:1025960012F0E6EF12F01F0E5C64D4EF12F0D6EFE5
:1025A60012F0DEEF12F087EF12F0D8905336543661
:1025B600553656365C065C50D8A4E4EF12F0E6EFCA
:1025C60012F0D8EF12F05B50D8B4ECEF12F0EEEF49
:1025D60012F0F6EF12F0561E551E541E536C000EE6
:1025E60054225522562253C053F054C054F055C0BD
:1025F60055F056C056F012000B50D8B405EF13F044
:1026060007EF13F038EF13F00B50D96EDA6ADF508C
:10261600070B0C6E050E0C6013EF13F015EF13F09D
:1026260038EF13F00B50D96EDA6ADF30E832E83251
:10263600070B0C6E080E0C6023EF13F025EF13F05A
:1026460038EF13F00BC003F0E3EC11F00D6E0BC086
:1026560003F00B50D96EDA6A000EDFBE010E046E6F
:1026660041EC11F00D6E3AEF13F0000E0D6E0D50A9
:1026760012000E50D8B442EF13F044EF13F071EF8E
:1026860013F07AC011F00E50D96EDA6ADF50070BDC
:102696000F6E11500F18F80B0F18116E0E50D96EE1
:1026A600DA6ADF30E832E832070B0F6E0F460F4664
:1026B6000F4611500F18C70B0F18116E119C0E50B4
:1026C600D96EDA6ADFAC02D0118E01D0119E110EDE
:1026D6000B6EFFEC12F0106E73EF13F0000E106E1F
:1026E60010501200500EF66E270EF76E000EF86EA2
:1026F60000EE80F010EE4DF00900F5CFEEFFE5504C
:10270600E150FAE11E0EF66E290EF76E000EF86E17
:102716000900F5CF7BF00900F5CF7CF001EE00F063
:102726000B0EEE6AE806FDE100EECDF0300EEE6A25
:10273600E806FDE100EE6AF0110EEE6AE806FDE13C
:102746007D907D92000171EF14F0800F810F820F52
:10275600830F840F890F8A0F8B0F8C0F8D0F920FAB
:10276600930F940F950F960F323A030B131B232BDF
:10277600333B020A121A626A727A020A121A222A71
:102786000000010000020A121A004B0001020A12A0
:072796000A204E00000000C4
:10279E006750D8B4D5EF13F0D7EF13F0EAEF13F07C
:1027AE00F00EBA1667280B6EFFEC12F0686E67C05B
:1027BE005DF09AEC10F0BA50F00B0C09BA6EF00EF8
:1027CE00BA16ECEF13F0000E686E685012006750E8
:1027DE00D8B4F4EF13F0F6EF13F009EF14F0F00E97
:1027EE00BD1667C00BF0FFEC12F0686E67C05DF0AF
:1027FE009AEC10F0BD50F00B0C09BD6EF00EBD162C
:10280E000BEF14F0000E686E685012006950D8B4C9
:10281E0013EF14F015EF14F023EF14F069C067F006
:10282E00EEEC13F00001FD6F69C067F0CFEC13F012
:10283E000001FD6F26EF14F0000E0001FD6FFD513B
:10284E001200016EF2900150D8A430EF14F032EF66
:10285E0014F034EF14F034EF14F01200016EF29015
:10286E000150D8A43DEF14F03FEF14F041EF14F0F7
:10287E0041EF14F01200016EF2900150D8A44AEF0D
:10288E0014F04CEF14F04EEF14F04EEF14F0120063
:10289E00016EF2900150D8A457EF14F059EF14F0D6
:1028AE005BEF14F05BEF14F0120063EC14F0C50E46
:1028BE00696E0DEC14F012007C0E0E6E3CEC13F0F3
:1028CE00126E12501200A1920001DC51B36EDBC0E9
:1028DE00B2FF12005CEC14F073EF14F033EF00F063
:1028EE009E906B50CF6E6AC0CEFF1200F2946D5068
:1028FE00D76E6CC0D6FF12009E926EC0CCFF120037
:10290E00F0921200F0901200F29212009E9C1200B1
:02291E000103B3
:020000040030CA
:0E000000FF02091EFF8181FF0FC00FE00F40BD
:00000001FF
