:0400000095EF08F080
:10100000003738392F3435362A3132332D63303DAD
:051010002B2569000022
:10101600456E010E446E4150D8B414EF08F016EF39
:1010260008F033EF08F0050E45601CEF08F01EEFE0
:1010360008F033EF08F04550020DF350010FD96E5A
:10104600DA6ADECF42F0DDCF43F042C0D9FF43C0BB
:10105600DAFF4150E16EE26ADFCFE7FF35EF08F0D5
:10106600000E446E44501200456E010E446E050E8D
:10107600456040EF08F042EF08F054EF08F04550A5
:10108600020DF3500B0FD96EDA6ADECF42F0DDCFD8
:1010960043F042C0D9FF43C0DAFF41C0DFFF56EF3D
:1010A60008F0000E446E44501200456E010E446E68
:1010B600050E456061EF08F063EF08F075EF08F084
:1010C6004550020DF350150FD96EDA6ADECF42F0A5
:1010D600DDCF43F042C0D9FF43C0DAFF41C0DFFF96
:1010E60077EF08F0000E446E44501200800F810F17
:1010F600820F830F840F890F8A0F8B0F8C0F8D0F32
:10110600920F930F940F950F960F020A121A626AA6
:10111600727A03323A030B131B232B333B020A1258
:031126001A222A60
:10112A00F20EF66E100EF76E000EF86E00EE01F07B
:10113A0010EE37F00900F5CFEEFFE550E150FAE185
:10114A0000EE38F0090EEE6AE806FDE1000EF86ED0
:10115A000001C0EF08F0550E416E000E58EC08F081
:10116A00550E416E000E37EC08F0400E416E000E2F
:10117A000BEC08F01200B0EC08F0C2EF08F000EF38
:02118A0000F073
:020000040030CA
:0E000000FF02091EFF8181FF0FC00FE00F40BD
:00000001FF
