:0400000006EF0BF00C
:101000000000010E2C6E2650D8B409EF08F00BEF4B
:1010100008F07EEF08F02650D96EDA6ADF50070B31
:10102000276E050E276017EF08F019EF08F07EEF26
:1010300008F02650D96EDA6ADF30E832E832070B62
:10104000276E080E276027EF08F029EF08F07EEFE3
:1010500008F082EF08F02650D96EDA6ADF30E83205
:10106000E832070B276E010E286E272A3AEF08F0A8
:10107000D8902836272E38EF08F02850FF0A296E1E
:101080002650D96EDA6ADF50070B020DF350150FA8
:10109000D96EDA6ADECF2AF0DDCF2BF02AC0D9FF75
:1010A0002BC0DAFF2950DF16A2EF08F02650D96EC8
:1010B000DA6ADF30E832E832070B276E010E286E5D
:1010C000272A65EF08F0D8902836272E63EF08F01E
:1010D0002650D96EDA6ADF50070B020DF350150F58
:1010E000D96EDA6ADECF29F0DDCF2AF029C0D9FF28
:1010F0002AC0DAFF2850DF12A2EF08F0000E2C6E93
:10110000A2EF08F02650D96EDA6ADFBC8AEF08F049
:101110008DEF08F0010E8EEF08F0000E276E286AA2
:101120002850000AD8B497EF08F07EEF08F0275057
:10113000000AD8B42BEF08F0010AD8B456EF08F033
:101140007EEF08F02C501200010E2D6E2650D8B400
:10115000ACEF08F0AEEF08F02BEF09F02650D96E97
:10116000DA6ADF50070B286E050E2860BAEF08F028
:10117000BCEF08F02BEF09F02650D96EDA6ADF30A9
:10118000E832E832070B286E080E2860CAEF08F034
:10119000CCEF08F02BEF09F02650D96EDA6ADFBCED
:1011A000D4EF08F0D6EF08F02BEF09F02FEF09F09D
:1011B0002650D96EDA6ADF30E832E832070B286E43
:1011C000010E296E282AE7EF08F0D8902936282E3C
:1011D000E5EF08F02950FF0A2A6E2650D96EDA6A28
:1011E000DF50070B020DF3500B0FD96EDA6ADECF1A
:1011F0002BF0DDCF2CF02BC0D9FF2CC0DAFF2A500A
:10120000DF1644EF09F02650D96EDA6ADF30E83293
:10121000E832070B286E010E296E282A12EF09F01A
:10122000D8902936282E10EF09F02650D96EDA6AA8
:10123000DF50070B020DF3500B0FD96EDA6ADECFC9
:101240002AF0DDCF2BF02AC0D9FF2BC0DAFF2950BE
:10125000DF1244EF09F0000E2D6E44EF09F0275025
:10126000286E296A2950000AD8B439EF09F02BEF0B
:1012700009F02850000AD8B4D8EF08F0010AD8B411
:1012800003EF09F02BEF09F02D50120034EC0BF0B6
:10129000000E3D6E000E356E1F0E2E6E3DC026F008
:1012A000276A000E296E0A0E286EAEEC09F0265051
:1012B0002F6E68EC0AF0346E250E266E000E276E37
:1012C000A4EC08F0346E1A0E336EF80EE82EFED73A
:1012D000332EFCD700D0250E266E010E276EA4EC0F
:1012E00008F0346E1F0E2E6E3DC026F0276A000EE9
:1012F000296E0A0E286E10EC0AF026502F6E68EC4C
:101300000AF0346E240E266E000E276EA4EC08F050
:10131000346E1A0E336EF80EE82EFED7332EFCD73D
:1013200000D0240E266E010E276EA4EC08F0346E59
:10133000352A130E35649FEF09F0A1EF09F04CEF49
:1013400009F03D2A630E3D64A8EF09F0AAEF09F009
:101350004AEF09F048EF09F000EF00F0000E2B6EA5
:1013600029BEB7EF09F0B5EF09F0BDEF09F0286C21
:10137000291ED8B0292A010E2B6E27BEC4EF09F012
:10138000C2EF09F0CAEF09F0266C271ED8B0272A51
:10139000010E2B1A000E2D6E000E2C6E28502910F7
:1013A000D8B4D5EF09F0D7EF09F0FFEF09F0010E3F
:1013B0002A6EDFEF09F0D890283629362A2A29AE7E
:1013C000E4EF09F0E6EF09F0DBEF09F0D8902C36F6
:1013D0002D362850265C29502758D8A0F2EF09F066
:1013E000F4EF09F0F9EF09F02850265E2950275A4A
:1013F0002C80D890293228322A2EE6EF09F02B5083
:10140000D8B405EF0AF007EF0AF00BEF0AF02C6CE6
:101410002D1ED8B02D2A2CC026F02DC027F012008A
:10142000000E2B6E27BE19EF0AF017EF0AF01FEF20
:101430000AF0266C271ED8B0272A010E2B6E29BE73
:1014400026EF0AF024EF0AF02AEF0AF0286C291E92
:10145000D8B0292A28502910D8B431EF0AF033EF38
:101460000AF057EF0AF0010E2A6E3BEF0AF0D8900F
:10147000283629362A2A29AE40EF0AF042EF0AF030
:1014800037EF0AF02850265C29502758D8A04BEF98
:101490000AF04DEF0AF051EF0AF02850265E29506D
:1014A000275AD890293228322A2E42EF0AF02B50A0
:1014B000D8B45DEF0AF05FEF0AF063EF0AF0266C34
:1014C000271ED8B0272A26C026F027C027F01200F2
:1014D0002E50D8B46EEF0AF070EF0AF0A1EF0AF0C8
:1014E0000A0E2F6076EF0AF078EF0AF0A1EF0AF00B
:1014F0002EC026F02F50010B276EA4EC08F0306EA2
:101500002E28266ED8902F30010B276EA4EC08F001
:10151000306E2E50020F266E2F40E8423F0B010B1B
:10152000276EA4EC08F0306E2E50030F266E2F3875
:10153000E8461F0B010B276EA4EC08F0306EA3EFFA
:101540000AF0000E306E305012002E50D8B4ABEFBF
:101550000AF0ADEF0AF0DEEF0AF02E50D96EDA6A2B
:10156000DF50070B2F6E050E2F60B9EF0AF0BBEFAF
:101570000AF0DEEF0AF02E50D96EDA6ADF30E83278
:10158000E832070B2F6E080E2F60C9EF0AF0CBEF81
:101590000AF0DEEF0AF02EC026F001EC08F0306E03
:1015A0002EC026F02E50D96EDA6A000EDFBE010E74
:1015B000276EA4EC08F0306EE0EF0AF0000E306EFB
:1015C000305012003150D8B4E8EF0AF0EAEF0AF0D8
:1015D00002EF0BF031C02EF0A5EC0AF0326E31288C
:1015E0002E6EA5EC0AF0326E3150020F2E6EA5EC75
:1015F0000AF0326E3150030F2E6EA5EC0AF0326EF7
:1016000004EF0BF0000E326E32501200420EF66EF6
:10161000160EF76E000EF86E00EE01F010EE25F0DB
:101620000900F5CFEEFFE550E150FAE100EE34F0AD
:10163000090EEE6AE806FDE1000EF86E000146EFC5
:1016400009F0800F810F820F830F840F890F8A0F9B
:101650008B0F8C0F8D0F920F930F940F950F960F8A
:07166000020A121A008B833D
:101668001F0E316EE2EC0AF0250E2E6EA5EC0AF084
:0A167800240E2E6EA5EC0AF01200FD
:020000040030CA
:0E000000FF02091EFF8181FF0FC00FE00F40BD
:00000001FF
